:100000000C942A000C943F000C943F000C943F0089
:100010000C943F000C943F000C943F000C943F0064
:100020000C943F000C943F000C943F000C943F0054
:100030000C943F000C943F000C943F000C943F0044
:100040000C943F000C943F000C943F000C943F0034
:100050000C943F0011241FBECFE5D4E0DEBFCDBF1E
:1000600010E0A0E6B0E0E8E1F1E002C005900D92FA
:10007000A039B107D9F70E946A000C948A000C9449
:1000800000001BB810BC88E089B988E18AB986E80D
:1000900080BD08955D9BFECF8CB90895CF93DF930B
:1000A000EC018881882331F021960E944A008991D1
:1000B0008111FBCF2FEF81EE94E0215080409040E2
:1000C000E1F700C00000DF91CF9108955F9BFECF64
:1000D0008CB108950E9441008FEF85BBDFE0C0EF37
:1000E0000E946600813431F4C5BB80E690E00E9436
:1000F0004E00F6CF823431F4D5BB8FE690E00E94FB
:100100004E00EECF833461F715BA8EE790E00E947F
:080110004E00E6CFF894FFCF8A
:1001180052656C61792031206973204F6E0A005254
:10012800656C61792032206973204F6E0A00526530
:100138006C617920312C32206973204F66660A0081
:00000001FF
