:100000000C942A000C9434000C9434000C943400AA
:100010000C9434000C9434000C9434000C94340090
:100020000C9434000C9434000C9434000C94340080
:100030000C9434000C9434000C9434000C94340070
:100040000C9434000C9434000C9434000C94340060
:100050000C94340011241FBECFE5D4E0DEBFCDBF29
:100060000E9436000C9454000C9400008FEF87BB64
:1000700080E88ABB20E890EF8FE02BBB98BB3FEF76
:1000800049E658E1315040405040E1F700C00000DF
:1000900088BB1BBA3FEF40E752E031504040504030
:0C00A000E1F700C00000E9CFF894FFCFAA
:00000001FF
