:1000000012C02CC02BC02AC029C028C027C026C0BF
:1000100025C024C023C022C021C020C01FC01EC0D4
:100020001DC01CC01BC011241FBECFE5D4E0DEBF25
:10003000CDBF11E0A0E6B0E0E2EFF2E002C0059033
:100040000D92AA31B107D9F721E0AAE1B1E001C0D0
:100050001D92AA31B207E1F75AD049C1D1CF1BB8DE
:1000600010BC88E089B988E18AB986E880BD089526
:100070005D9BFECF8CB90895CF93DF93EC0188810F
:10008000882329F02196F4DF89918111FCCF87EA3A
:1000900091E60197F1F700C00000DF91CF9108953C
:1000A000CF93DF93282F39E2839F312D112432958E
:1000B0003F704CE94303C0011124820F911D6AE097
:1000C00070E0EED0D62F205DC22F349FC00D1124DA
:1000D00080E3830FCDDF80E38D0FCADFDD0F8D2F2F
:1000E000880F880FD80F8C2F8D1BC2DFDF91CF9127
:1000F000089590E697B997B1892B87B9369A89EF19
:1001000090E00197F1F700C0000085B1089587B332
:100110008FEF87BB86E886B9A2DF80E690E0ACDF90
:100120002FE382E49FE0215080409040E1F700C03F
:10013000000089E690E0A0DF80E790E09DDF87EA9D
:1001400091E60197F1F700C0000082E890E094DFAB
:100150009FE322E48FE0915020408040E1F700C00F
:100160000000D0E080E0C5DFC82F81E0C2DF182F9B
:100170008C2F96DF9FE729EB8AE291502040804048
:10018000E1F700C00000C43108F062C0DF5FDA3080
:1001900009F05FC0C59A9FE729EB8AE291502040A1
:1001A0008040E1F700C000009FE729EB8AE2915010
:1001B00020408040E1F700C000009FE729EB8AE281
:1001C000915020408040E1F700C000009FE729EBFC
:1001D0008AE2915020408040E1F700C000009FE794
:1001E00029EB8AE2915020408040E1F700C00000F6
:1001F0009FE729EB8AE2915020408040E1F700C060
:1002000000009FE729EB8AE2915020408040E1F70F
:1002100000C000009FE729EB8AE291502040804017
:10022000E1F700C000009FE729EB8AE291502040EF
:100230008040E1F700C000009FE729EB8AE291507F
:1002400020408040E1F700C00000C598D0E001C028
:10025000D0E083EA90E010DF9FE72AE186E091504A
:1002600020408040E1F700C000008FEC90E004DF08
:1002700087EA91E60197F1F700C000008FED90E06A
:10028000FBDE812F0DDF80EA90E0F6DE87EA91E663
:100290000197F1F700C000008CE091E0EDDE62CF45
:1002A00097FB072E16F4009406D077FD08D00BD0EC
:1002B00007FC05D03EF4909581959F4F0895709569
:1002C00061957F4F0895AA1BBB1B51E107C0AA1F70
:1002D000BB1FA617B70710F0A61BB70B881F991FE7
:1002E0005A95A9F780959095BC01CD010895F89491
:0202F000FFCF3E
:1002F20041542B5253540D0A00415445300D0A000B
:1003020041542B43574D4F44455F4445463D330DC1
:100312000A0041542B43574A41505F4445463D220F
:1003220074657374222C22313233343536373822D5
:100332000D0A0041542B43495053544152543D221B
:10034200544350222C226170692E7468696E67735F
:100352007065616B2E636F6D222C38300D0A00417F
:10036200542B43495053454E443D35310D0A004705
:100372004554202F7570646174653F6170695F6BCD
:1003820065793D5A34423939434A445031465136EF
:10039200363430266669656C64373D0041542B4320
:0A03A2004950434C4F53450D0A002B
:00000001FF
