:100000000C942A000C943C000C943C000C943C0092
:100010000C943C000C943C000C943C000C943C0070
:100020000C943C000C943C000C943C000C943C0060
:100030000C943C000C943C000C943C000C943C0050
:100040000C943C000C943C000C943C000C943C0040
:100050000C943C0011241FBECFE5D4E0DEBFCDBF21
:1000600020E0A0E6B0E001C01D92A036B207E1F7A3
:100070000E9447000C947C000C9400001BB810BC3C
:1000800088E089B988E18AB986E880BD08958FEF54
:1000900087BB80E88ABB86E886B90E943E0038E1CB
:1000A00024E292E481E838BB4FEF53ED60E3415026
:1000B00050406040E1F700C0000028BB4FEF53ED17
:1000C00060E3415050406040E1F700C0000098BB41
:1000D0004FEF53ED60E3415050406040E1F700C006
:1000E000000088BB4FEF53ED60E34150504060404B
:0C00F000E1F700C00000D7CFF894FFCF6C
:00000001FF
