S0120000736572766F6D6F746F722E73726563B2
S113000012C02CC02BC02AC029C028C027C026C0BB
S113001025C024C023C022C021C020C01FC01EC0D0
S11300201DC01CC01BC011241FBECFE5D4E0DEBF21
S1130030CDBF10E0A0E6B0E0EEE9F1E002C005902B
S11300400D92A236B107D9F720E0A2E6B0E001C0D4
S11300501D92A236B207E1F75AD09FC0D1CF1BB888
S113006010BC88E089B988E18AB986E880BD089522
S11300705D9BFECF8CB90895CF93DF93EC0188810B
S1130080882329F02196F4DF89918111FCCF87EA36
S113009091E60197F1F700C00000DF91CF91089538
S11300A0CF93DF93282F39E2839F312D112432958A
S11300B03F704CE94303C0011124820F911D6AE093
S11300C070E044D0D62F205DC22F349FC00D112480
S11300D080E3830FCDDF80E38D0FCADFDD0F8D2F2B
S11300E0880F880FD80F8C2F8D1BC2DFDF91CF9123
S11300F0089590E697B997B1892B87B9369A89EF15
S113010090E00197F1F700C0000085B10895B99A15
S113011081B38FEF81BBA3DF1DBC1CBC83EC99E0D2
S113012097BD86BD82E88FBD8BE18EBD81E0E1DFA6
S11301302FEB37E299E0215030409040E1F700C0C6
S11301400000AEDF80E690E097DFF0CF97FB072E4C
S113015016F4009406D077FD08D00BD007FC05D028
S11301603EF4909581959F4F0895709561957F4FCA
S11301700895AA1BBB1B51E107C0AA1FBB1FA617EA
S1130180B70710F0A61BB70B881F991F5A95A9F73C
S111019080959095BC01CD010895F894FFCFA1
S105019E0A0051
S9030000FC
