S00D0000756C7472612E73726563EF
S113000012C02CC02BC02AC029C028C027C026C0BB
S113001025C024C023C022C021C020C01FC01EC0D0
S11300201DC01CC01BC011241FBECFE5D4E0DEBF21
S1130030CDBF10E0A0E6B0E0E2EBF6E002C0059030
S11300400D92AA36B107D9F720E0AAE6B0E001C0C4
S11300501D92AA36B207E1F714D129C3D1CF1BB838
S113006010BC88E089B988E18AB986E880BD089522
S11300705D9BFECF8CB90895CF93DF93EC0188810B
S1130080882329F02196F4DF89918111FCCF87EA36
S113009091E60197F1F700C00000DF91CF91089538
S11300A0CF93DF93282F39E2839F312D112432958A
S11300B03F704CE94303C0011124820F911D6AE093
S11300C070E0CED2D62F205DC22F349FC00D1124F4
S11300D080E3830FCDDF80E38D0FCADFDD0F8D2F2B
S11300E0880F880FD80F8C2F8D1BC2DFDF91CF9123
S11300F00895A09A0895A89A85E08A95F1F7A8989A
S11301000895999918C081E090E0A0E0B0E0999931
S11301100DC00196A11DB11D803C27E2920729E084
S1130120A207B105A1F78FEF9FEF0895803C974296
S1130130A940B105C9F11FBC82E08EBD1DBC1CBC29
S1130140999B22C08CB59DB581369A4EE8F481E026
S113015090E0A0E0B0E0999B12C02CB53DB52136EB
S11301603A4E68F40196A11DB11D803C27E2920726
S113017029E0A207B10579F78EEF9FEF0895803C3F
S11301809742A940B10599F08CB59DB5A0E0B0E0C7
S11301901EBC81362AEE9207A105B10558F4B69526
S11301A0A7959795879508958FEF9FEF08958EEF04
S11301B09FEF08958EEF9FEF0895A29A0895AA9A4B
S11301C085E08A95F1F7AA9808959B9918C081E073
S11301D090E0A0E0B0E09B990DC00196A11DB11D77
S11301E0803C27E2920729E0A207B105A1F78FEF2F
S11301F09FEF0895803C9742A940B105C9F11FBC07
S113020082E08EBD1DBC1CBC9B9B22C08CB59DB5E1
S113021081369A4EE8F481E090E0A0E0B0E09B9B48
S113022012C02CB53DB521363A4E68F40196A11D95
S1130230B11D803C27E2920729E0A207B10579F7B6
S11302408EEF9FEF0895803C9742A940B10599F045
S11302508CB59DB5A0E0B0E01EBC81362AEE9207B5
S1130260A105B10558F4B695A79597958795089576
S11302708FEF9FEF08958EEF9FEF08958EEF9FEF1E
S1130280089586E886B9EBDE87EA91E60197F1F7EF
S113029000C000002EDF91DF9FE121EA87E091504A
S11302A020408040E1F700C00000D0E0C0E023DF40
S11302B028DF9C012E5F3F4F22303105C8F0BC017E
S11302C080E090E03FD120E030E048E652E4A1D065
S11302D020E030E040E85FE337D003D1C62F9FE948
S11302E026E881E0915020408040E1F700C0000002
S11302F066DF6BDF9C012E5F3F4F22303105C8F073
S1130300BC0180E090E01ED120E030E048E652E4F9
S113031080D020E030E040E85FE316D0E2D0D62F72
S11303209FE926E881E0915020408040E1F700C039
S113033000008C2FB5DE80E690E09EDE8D2FB0DECF
S113034085E690E099DEB3CF5058BB27AA270ED09C
S11303504DC13ED130F043D120F031F49F3F11F430
S11303601EF433C10EF4E095E7FB29C1E92F4FD108
S113037080F3BA17620773078407950718F071F4BE
S11303809EF567C10EF4E0950B2EBA2FA02D0B013C
S1130390B90190010C01CA01A0011124FF27591BC6
S11303A099F0593F50F4503E68F11A16F040A22FCC
S11303B0232F342F4427585FF3CF4695379527953D
S11303C0A795F0405395C9F77EF41F16BA0B620B3C
S11303D0730B840BBAF09150A1F0FF0FBB1F661F83
S11303E0771F881FC2F70EC0BA0F621F731F841FC6
S11303F048F4879577956795B795F7959E3F08F0EC
S1130400B3CF9395880F08F09927EE0F97958795AA
S113041008950CD0EBC0E3D040F0DAD030F021F4F2
S11304205F3F19F0CCC0511115C1CFC0F0D098F383
S11304309923C9F35523B1F3951B550BBB27AA2761
S113044062177307840738F09F5F5F4F220F331FD3
S1130450441FAA1FA9F333D00E2E3AF0E0E830D09F
S113046091505040E695001CCAF729D0FE2F27D0A2
S1130470660F771F881FBB1F261737074807AB0770
S1130480B0E809F0BB0B802DBF01FF2793585F4FE5
S11304902AF09E3F510568F092C0DCC05F3FECF348
S11304A0983EDCF3869577956795B795F7959F5FAA
S11304B0C9F7880F911D9695879597F90895E1E0FE
S11304C0660F771F881FBB1F621773078407BA075D
S11304D020F0621B730B840BBA0BEE1F88F7E095B8
S11304E0089504D06894B111B5C0089598D088F0E7
S11304F09F5790F0B92F9927B751A0F0D1F0660F0C
S1130500771F881F991F1AF0BA95C9F712C0B13026
S113051081F09FD0B1E008959CC0672F782F882781
S1130520B85F39F0B93FCCF3869577956795B39565
S1130530D9F73EF490958095709561957F4F8F4FD4
S11305409F4F0895E89409C097FB3EF490958095D9
S1130550709561957F4F8F4F9F4F9923A9F0F92F85
S113056096E9BB279395F695879577956795B79503
S1130570F111F8CFFAF4BB0F11F460FF1BC06F5FE9
S11305807F4F8F4F9F4F16C0882311F096E911C0FB
S1130590772321F09EE8872F762F05C0662371F01C
S11305A096E8862F70E060E02AF09A95660F771F30
S11305B0881FDAF7880F9695879597F9089597F924
S11305C09F6780E870E060E008959FEF80EC0895F5
S11305D000240A941616170618060906089500241E
S11305E00A9412161306140605060895092E039498
S11305F0000C11F4882352F0BB0F40F4BF2B11F40C
S113060060FF04C06F5F7F4F8F4F9F4F089557FD6A
S11306109058440F551F59F05F3F71F04795880F6C
S113062097FB991F61F09F3F79F087950895121603
S113063013061406551FF2CF4695F1DF08C01616AF
S113064017061806991FF1CF869571056105089460
S11306500895E894BB2766277727CB0197F9089577
S113066097FB072E16F4009406D077FD08D00BD024
S113067007FC05D03EF4909581959F4F08957095A1
S113068061957F4F0895AA1BBB1B51E107C0AA1FA8
S1130690BB1FA617B70710F0A61BB70B881F991F1F
S11306A05A95A9F780959095BC01CD010895F894C9
S10506B0FFCF76
S10D06B220636D090020434D0A0087
S9030000FC
