S00B00004C44522E7372656337
S11300000C942A000C9447000C9447000C9447006D
S11300100C9447000C9447000C9447000C94470040
S11300200C9447000C9447000C9447000C94470030
S11300300C9447000C9447000C9447000C94470020
S11300400C9447000C9447000C9447000C94470010
S11300500C94470011241FBECFE5D4E0DEBFCDBF12
S113006010E0A0E6B0E0EEEEF1E002C005900D92E3
S1130070A037B107D9F720E0A0E7B0E001C01D9296
S1130080A037B207E1F70E94A9000C94F5000C9484
S1130090000090E697B997B1892B87B9369A8FE912
S11300A09FE00197F1F700C0000085B108951BB8E7
S11300B010BC88E089B988E18AB986E880BD0895D2
S11300C05D9BFECF8CB90895CF93DF93EC018881BB
S11300D0882331F021960E94600089918111FBCF21
S11300E02FEF81EE94E0215080409040E1F700C072
S11300F00000DF91CF910895CF93DF93282F39E249
S1130100839F312D112432953F704CE94303C00184
S11301101124820F911D6AE070E00E94CD00D62F59
S1130120205DC22F349FC00D112480E3830F0E94F1
S1130130600080E38D0F0E946000DD0F8D2F880F1B
S1130140880FD80F8C2F8D1B0E946000DF91CF91F8
S1130150089586E886B90E945700DFE080E00E9497
S11301604900C82F8FEF8C0F883110F4D8BB01C021
S113017018BA80E690E00E9464008C2F0E947C00F4
S11301808AE00E9460002FEF83ED90E321508040CD
S11301909040E1F700C00000E1CF97FB072E16F472
S11301A0009407D077FD09D00E94E10007FC05D038
S11301B03EF4909581959F4F0895709561957F4F7A
S11301C00895AA1BBB1B51E107C0AA1FBB1FA6179A
S11301D0B70710F0A61BB70B881F991F5A95A9F7EC
S11101E080959095BC01CD010895F894FFCF51
S11301EE4C44522056616C7565206973203A200088
S9030000FC
