S00C0000546573742E7372656378
S113000012C02CC02BC02AC029C028C027C026C0BB
S113001025C024C023C022C021C020C01FC01EC0D0
S11300201DC01CC01BC011241FBECFE5D4E0DEBF21
S1130030CDBF11E0A0E6B0E0ECEBFFE002C005901C
S11300400D92A03DB107D9F721E0A0EDB1E001C0C8
S11300501D92AA3DB207E1F779D3AEC7D1CF1BB841
S113006010BC88E089B988E18AB986E880BD089522
S11300705D9BFECF8CB90895CF93DF93EC0188810B
S1130080882329F02196F4DF89918111FCCF87EA36
S113009091E60197F1F700C00000DF91CF91089538
S11300A0CF93DF93282F39E2839F312D112432958A
S11300B03F704CE94303C0011124820F911D6AE093
S11300C070E053D7D62F205DC22F349FC00D11246A
S11300D080E3830FCDDF80E38D0FCADFDD0F8D2F2B
S11300E0880F880FD80F8C2F8D1BC2DFDF91CF9123
S11300F0089590E697B997B1892B87B9369A89EF15
S113010090E00197F1F700C0000085B10895A09A2E
S11301100895A89A85E08A95F1F7A8980895999981
S113012018C081E090E0A0E0B0E099990DC001967C
S1130130A11DB11D803C27E2920729E0A207B10569
S1130140A1F78FEF9FEF0895803C9742A940B10536
S1130150C9F11FBC82E08EBD1DBC1CBC999B22C092
S11301608CB59DB581369A4EE8F481E090E0A0E02C
S1130170B0E0999B12C02CB53DB521363A4E68F4D7
S11301800196A11DB11D803C27E2920729E0A20738
S1130190B10579F78EEF9FEF0895803C9742A9400F
S11301A0B10599F08CB59DB5A0E0B0E01EBC8136D8
S11301B02AEE9207A105B10558F4B695A79597952F
S11301C0879508958FEF9FEF08958EEF9FEF089521
S11301D08EEF9FEF0895A09A0895A89A85E08A95D6
S11301E0F1F7A89808959B9918C081E090E0A0E0E9
S11301F0B0E09B990DC00196A11DB11D803C27E282
S1130200920729E0A207B105A1F78FEF9FEF0895A8
S1130210803C9742A940B105C9F11FBC82E08EBD64
S11302201DBC1CBC9B9B22C08CB59DB581369A4ECF
S1130230E8F481E090E0A0E0B0E09B9B12C02CB514
S11302403DB521363A4E68F40196A11DB11D803C9E
S113025027E2920729E0A207B10579F78EEF9FEF15
S11302600895803C9742A940B10599F08CB59DB59D
S1130270A0E0B0E01EBC81362AEE9207A105B105CC
S113028058F4B695A7959795879508958FEF9FEFA6
S113029008958EEF9FEF08958EEF9FEF08952FEB53
S11302A081E991E2215080409040E1F700C00000D4
S11302B02FEB81E991E2215080409040E1F700C0AA
S11302C000002FEB81E991E2215080409040E1F75A
S11302D000C000002FEB81E991E221508040904062
S11302E0E1F700C000002FEB81E991E2215080404A
S11302F09040E1F700C000002FEB81E991E221502A
S113030080409040E1F700C000002FEB81E991E2CA
S1130310215080409040E1F700C000002FEB81E9BC
S113032091E2215080409040E1F700C000002FEBA3
S113033081E991E2215080409040E1F700C0000043
S11303402FEB81E991E2215080409040E1F700C019
S113035000002FEB81E991E2215080409040E1F7C9
S113036000C000002FEB81E991E2215080409040D1
S1130370E1F700C000002FEB81E991E221508040B9
S11303809040E1F700C000002FEB81E991E2215099
S113039080409040E1F700C000002FEB81E991E23A
S11303A0215080409040E1F700C000002FEB81E92C
S11303B091E2215080409040E1F700C000002FEB13
S11303C081E991E2215080409040E1F700C00000B3
S11303D02FEB81E991E2215080409040E1F700C089
S11303E000002FEB81E991E2215080409040E1F739
S11303F000C000002FEB81E991E221508040904041
S1130400E1F700C000002FEB81E991E22150804028
S11304109040E1F700C000002FEB81E991E2215008
S113042080409040E1F700C000002FEB81E991E2A9
S1130430215080409040E1F700C000002FEB81E99B
S113044091E2215080409040E1F700C000002FEB82
S113045081E991E2215080409040E1F700C0000022
S11304602FEB81E991E2215080409040E1F700C0F8
S113047000002FEB81E991E2215080409040E1F7A8
S113048000C000002FEB81E991E2215080409040B0
S1130490E1F700C000002FEB81E991E22150804098
S11304A09040E1F700C000002FEB81E991E2215078
S11304B080409040E1F700C000002FEB81E991E219
S11304C0215080409040E1F700C000002FEB81E90B
S11304D091E2215080409040E1F700C000002FEBF2
S11304E081E991E2215080409040E1F700C0000092
S11304F02FEB81E991E2215080409040E1F700C068
S113050000002FEB81E991E2215080409040E1F717
S113051000C000000895FDDD2FE382E49FE0215038
S113052080409040E1F700C00000F9DD9093D701CE
S11305308093D6019C012E5F3F4F22303105E0F0BD
S1130540BC0180E090E083D420E030E048E652E44F
S1130550E5D320E030E040E85FE37BD347D47093F9
S1130560D3016093D2012FE986E891E021508040C5
S11305709040E1F700C0000030DE35DE9093D701F3
S11305808093D6019C012E5F3F4F22303105E0F06D
S1130590BC0180E090E05BD420E030E048E652E427
S11305A0BDD320E030E040E85FE353D31FD4709321
S11305B0D1016093D0012FE986E891E02150804079
S11305C09040E1F700C000008091D2019091D301E6
S11305D0079719F082E690E04FDD2FE78AE196E075
S11305E0215080409040E1F700C000008EE890E088
S11305F043DD87EA91E60197F1F700C000008EE938
S113060090E03ADD8091D2014BDD86E491E034DD67
S113061087EA91E60197F1F700C000008BEC90E0C7
S11306202BDD8091D0019091D101069719F082E6DB
S113063090E022DD9FE72AE186E09150204080404F
S1130640E1F700C000008EE890E016DD87EA91E64D
S11306500197F1F700C0000089ED90E00DDD809175
S1130660D0011EDD86E491E007DD87EA91E601977B
S1130670F1F700C000008BEC90E0FEDC8091D0012B
S11306809091D101069709F05BC08091D2019091BD
S1130690D301079709F057C0979A01DE82E690E0EC
S11306A0EBDC9FE72AE186E0915020408040E1F7AF
S11306B000C000008EE890E0DFDC87EA91E6019755
S11306C0F1F700C0000089ED90E0D6DC8091D00104
S11306D0E7DC86E491E0D0DC87EA91E60197F1F764
S11306E000C000008BEC90E0C7DCD9DD82E690E02E
S11306F0C3DC9FE72AE186E0915020408040E1F787
S113070000C000008EE890E0B7DC87EA91E601972C
S1130710F1F700C000008EE990E0AEDC8091D201D8
S1130720BFDC86E491E0A8DC87EA91E60197F1F763
S113073000C000008BEC90E09FDC81E090E0089525
S113074080E090E0089580E090E00895E0DC43DDEF
S11307502FE181EA97E0215080409040E1F700C00A
S1130760000087B38FEF87BB91B381BB1DBC1CBC5A
S113077083EC99E097BD86BD82E88FBD8BE18EBD89
S113078086E886B96CDC86E091E076DC2FE382E4CF
S11307909FE0215080409040E1F700C000008FE0CE
S11307A091E06ADC86E191E067DC87EA91E60197F3
S11307B0F1F700C0000088E291E05EDC9FE322E4F0
S11307C08FE0915020408040E1F700C0000000E03D
S11307D0C12CD12CC0E0D0E00F2EF3E0AF2EF02DD1
S11307E0B12C6894882481F8912C0F2EFDE0EF2E13
S11307F0F2E0FF2EF02D66246394712C02C0CA2D02
S1130800DB2D209799F4C59A86DE182F809160001D
S1130810909161009BBD8ABD8091600090916100C0
S1130820039790936100809360000EC0C130D1059E
S113083021F482E05EDCD82E0EC0C230D10521F452
S113084084E057DCC82E8EC1C330D10521F485E085
S113085050DC082FC2C1209749F4113091F6C49A94
S1130860FBBCEABCC598C62DD72DCBCFC130D10572
S113087009F075C122E32D1520F6C09A8FEB91E99A
S113088021E2815090402040E1F700C000008FEB4E
S113089091E921E2815090402040E1F700C000003E
S11308A08FEB91E921E2815090402040E1F700C0B4
S11308B000008FEB91E921E2815090402040E1F764
S11308C000C000008FEB91E921E28150904020406C
S11308D0E1F700C000008FEB91E921E281509040E4
S11308E02040E1F700C000008FEB91E921E2815044
S11308F090402040E1F700C000008FEB91E921E235
S1130900815090402040E1F700C000008FEB91E956
S113091021E2815090402040E1F700C000008FEBBD
S113092091E921E2815090402040E1F700C00000AD
S11309308FEB91E921E2815090402040E1F700C023
S113094000008FEB91E921E2815090402040E1F7D3
S113095000C000008FEB91E921E2815090402040DB
S1130960E1F700C000008FEB91E921E28150904053
S11309702040E1F700C000008FEB91E921E28150B3
S113098090402040E1F700C000008FEB91E921E2A4
S1130990815090402040E1F700C000008FEB91E9C6
S11309A021E2815090402040E1F700C000008FEB2D
S11309B091E921E2815090402040E1F700C000001D
S11309C08FEB91E921E2815090402040E1F700C093
S11309D000008FEB91E921E2815090402040E1F743
S11309E000C000008FEB91E921E28150904020404B
S11309F0E1F700C000008FEB91E921E281509040C3
S1130A002040E1F700C000008FEB91E921E2815022
S1130A1090402040E1F700C000008FEB91E921E213
S1130A20815090402040E1F700C000008FEB91E935
S1130A3021E2815090402040E1F700C000008FEB9C
S1130A4091E921E2815090402040E1F700C000008C
S1130A508FEB91E921E2815090402040E1F700C002
S1130A6000008FEB91E921E2815090402040E1F7B2
S1130A7000C000008FEB91E921E2815090402040BA
S1130A80E1F700C000008FEB91E921E28150904032
S1130A902040E1F700C000008FEB91E921E2815092
S1130AA090402040E1F700C000008FEB91E921E283
S1130AB0815090402040E1F700C000008FEB91E9A5
S1130AC021E2815090402040E1F700C000008FEB0C
S1130AD091E921E2815090402040E1F700C00000FC
S1130AE08FEB91E921E2815090402040E1F700C072
S1130AF0000082E690E0C0DA8FE79AE126E08150B8
S1130B0090402040E1F700C000008EE890E0B4DAA5
S1130B1087EA91E60197F1F700C0000089E491E0CB
S1130B20ABDA86E9BDDA86E491E0A6DA87EA91E6F3
S1130B300197F1F700C000008BEC90E09DDA9FEB89
S1130B4021E981E2915020408040E1F700C000009B
S1130B50A6DBC39AC09AC498C82DD92D52CEC230F0
S1130B60D105B9F583E2C81271C0959A82E690E086
S1130B7083DA9FE72AE186E0915020408040E1F744
S1130B8000C000008EE890E077DA87EA91E60197EA
S1130B90F1F700C0000086E791E06EDA83E280DAC4
S1130BA086E491E069DA87EA91E60197F1F700C0FB
S1130BB000008BEC90E060DA9FEB21E981E2915038
S1130BC020408040E1F700C0000069DBC29AC3986E
S1130BD004C0C330D10509F014CE013508F40FCE9A
S1130BE0969A82E690E048DA9FE72AE186E09150FF
S1130BF020408040E1F700C000008EE890E03CDA3D
S1130C0087EA91E60197F1F700C0000083EA91E0DA
S1130C1033DA802F45DA86E491E02EDA87EA91E62A
S1130C200197F1F700C000008BEC90E025DA9FEB10
S1130C3021E981E2915020408040E1F700C00000AA
S1130C402EDB969AC298CA2DDB2DDBCDC82DD92D6B
S1130C50D8CD5058BB27AA270ED04DC13ED130F075
S1130C6043D120F031F49F3F11F41EF433C10EF44C
S1130C70E095E7FB29C1E92F4FD180F3BA1762074A
S1130C8073078407950718F071F49EF567C10EF495
S1130C90E0950B2EBA2FA02D0B01B90190010C0188
S1130CA0CA01A0011124FF27591B99F0593F50F4A0
S1130CB0503E68F11A16F040A22F232F342F4427F8
S1130CC0585FF3CF469537952795A795F0405395F0
S1130CD0C9F77EF41F16BA0B620B730B840BBAF0C0
S1130CE09150A1F0FF0FBB1F661F771F881FC2F72B
S1130CF00EC0BA0F621F731F841F48F4879577953F
S1130D006795B795F7959E3F08F0B3CF9395880FF5
S1130D1008F09927EE0F9795879508950CD0EBC0AE
S1130D20E3D040F0DAD030F021F45F3F19F0CCC0CA
S1130D30511115C1CFC0F0D098F39923C9F35523AD
S1130D40B1F3951B550BBB27AA27621773078407BA
S1130D5038F09F5F5F4F220F331F441FAA1FA9F370
S1130D6033D00E2E3AF0E0E830D091505040E69562
S1130D70001CCAF729D0FE2F27D0660F771F881FC3
S1130D80BB1F261737074807AB07B0E809F0BB0BB2
S1130D90802DBF01FF2793585F4F2AF09E3F5105D6
S1130DA068F092C0DCC05F3FECF3983EDCF38695BC
S1130DB077956795B795F7959F5FC9F7880F911D4C
S1130DC09695879597F90895E1E0660F771F881F38
S1130DD0BB1F621773078407BA0720F0621B730BEB
S1130DE0840BBA0BEE1F88F7E095089504D068943D
S1130DF0B111B5C0089598D088F09F5790F0B92FDD
S1130E009927B751A0F0D1F0660F771F881F991F5B
S1130E101AF0BA95C9F712C0B13081F09FD0B1E091
S1130E2008959CC0672F782F8827B85F39F0B93FA1
S1130E30CCF3869577956795B395D9F73EF490955D
S1130E408095709561957F4F8F4F9F4F0895E894DB
S1130E5009C097FB3EF490958095709561957F4FFE
S1130E608F4F9F4F9923A9F0F92F96E9BB279395AC
S1130E70F695879577956795B795F111F8CFFAF4BC
S1130E80BB0F11F460FF1BC06F5F7F4F8F4F9F4FED
S1130E9016C0882311F096E911C0772321F09EE84B
S1130EA0872F762F05C0662371F096E8862F70E0B1
S1130EB060E02AF09A95660F771F881FDAF7880F8B
S1130EC09695879597F9089597F99F6780E870E05C
S1130ED060E008959FEF80EC089500240A941616AC
S1130EE0170618060906089500240A941216130614
S1130EF0140605060895092E0394000C11F48823A2
S1130F0052F0BB0F40F4BF2B11F460FF04C06F5FBD
S1130F107F4F8F4F9F4F089557FD9058440F551F93
S1130F2059F05F3F71F04795880F97FB991F61F067
S1130F309F3F79F087950895121613061406551FDE
S1130F40F2CF4695F1DF08C0161617061806991F4A
S1130F50F1CF86957105610508940895E894BB273F
S1130F6066277727CB0197F9089597FB072E16F488
S1130F70009406D077FD08D00BD007FC05D03EF4D2
S1130F80909581959F4F0895709561957F4F089531
S1130F90AA1BBB1B51E107C0AA1FBB1FA617B7079B
S1130FA010F0A61BB70B881F991F5A95A9F78095B7
S10F0FB09095BC01CD010895F894FFCF8A
S1130FBC0D0241542B43495053544152543D225435
S1130FCC4350222C226170692E7468696E677370A9
S1130FDC65616B2E636F6D222C38300D0A00415401
S1130FEC2B43495053454E443D35310D0A0047457A
S1130FFC54202F7570646174653F6170695F6B6513
S113100C793D5A34423939434A4450314651363683
S113101C3430266669656C64313D0041542B434978
S113102C50434C4F53450D0A00474554202F7570BF
S113103C646174653F6170695F6B65793D5A3442D4
S113104C3939434A44503146513636343026666970
S113105C656C64323D0041542B5253540D0A0041CB
S113106C5445300D0A0041542B43574D4F44455FB2
S113107C4445463D330D0A0041542B43574A4150D5
S113108C5F4445463D2274657374222C22313233FD
S113109C3435363738220D0A00474554202F7570E5
S11310AC646174653F6170695F6B65793D5A344264
S11310BC3939434A44503146513636343026666900
S11310CC656C64343D00474554202F75706461741D
S11310DC653F6170695F6B65793D5A3442393943B8
S11310EC4A445031465136363430266669656C6450
S11310FC353D00474554202F7570646174653F611C
S113110C70695F6B65793D5A34423939434A4450AE
S113111C31465136363430266669656C64363D008A
S9030000FC
